:0A000000020951D28AD2AAD2AF221F
:03000B00020BC322
:100013000209DD90000374FFF0A37414F0A3740EBF
:10002300F0A374FFF0A37414F0A37445F090147C50
:10003300740193900009F090147E1207CB90000A8C
:100043001207DB90000E7437F07BFF7A1379D71217
:1000530008237F0A7E00120BEC1207E77F0A7E005B
:10006300120BEC90000374FFF0A37414F0A374BCA0
:10007300F0A374FFF0A37414F0A374C7F09014D228
:10008300740193900009F090147E1207CB90000A3C
:100093001207DB90000E740BF07BFF7A1479B11218
:1000A30008237F0A7E00120BEC90000374FFF0A379
:1000B3007414F0A374DAF0A374FFF0A37414F0A320
:1000C30074E0F09014E6740193900009F090147EAC
:1000D3001207CB90000A1207DB90000E7406F07B28
:1000E300FF7A1479D41208237F077E00120BEC9059
:1000F300000374FFF0A37415F0A37405F0A374FF59
:10010300F0A37415F0A37422F090153F740193903B
:100113000009F090147E1207CB90000A1207DB90BF
:10012300000E741DF07BFF7A1479E81208237F0A0E
:100133007E00120BEC90000374FFF0A37415F0A380
:10014300745BF0A374FFF0A37415F0A37475F090BF
:10015300158F740193900009F090147E1207CB90D1
:10016300000A1207DB90000E741AF07BFF7A1579F0
:10017300411208237F0A7E00120BEC90000374FFE8
:10018300F0A37415F0A374B7F0A374FFF0A3741570
:10019300F0A374DDF0901603740193900009F090BE
:1001A300147E1207CB90000A1207DB90000E742610
:1001B300F07BFF7A1579911208237F147E00120BCE
:1001C300EC1207E77F0A7E00120BEC90000374FF2A
:1001D300F0A37414F0A374BCF0A374FFF0A374141D
:1001E300F0A374C7F09014D2740193900009F090B7
:1001F300147E1207CB90000A1207DB90000E740BDB
:10020300F07BFF7A1479B11208237F0A7E00120B68
:10021300EC90000374FFF0A37414F0A374DAF0A35A
:1002230074FFF0A37414F0A374E0F09014E6740167
:1002330093900009F090147E1207CB90000A1207E6
:10024300DB90000E7406F07BFF7A1479D412082336
:100253007F0C7E00120BEC90000374FFF0A3741666
:10026300F0A374EBF0A374FFF0A37417F0A3740965
:10027300F0901727740193900009F090147E1207F1
:10028300CB90000A1207DB90000E741EF07BFF7AFE
:100293001679051208237F0C7E00120BEC900003E5
:1002A30074FFF0A37417F0A3747EF0A374FFF0A39C
:1002B3007417F0A374D3F090182874019390000975
:1002C300F090147E1207CB90000A1207DB90000E09
:1002D3007455F07BFF7A1779291208237F057E0076
:1002E300120BEC90000374FFF0A37418F0A3746472
:1002F300F0A374FFF0A37418F0A3749EF09018D8C1
:10030300740193900009F090147E1207CB90000AB9
:100313001207DB90000E743AF07BFF7A18792A12E9
:1003230008237F0A7E00120BEC90000374FFF0A3F6
:100333007418F0A374EAF0A374FFF0A37418F0A385
:1003430074FAF090190A740193900009F090147EE6
:100353001207CB90000A1207DB90000E7410F07B9B
:10036300FF7A1879DA12082390000374FFF0A3745C
:1003730019F0A3740EF0A374FFF0A37419F0A3741F
:1003830010F0901912740193900009F090147E12EA
:1003930007CB90000A1207DB90000E7402F07BFF7C
:1003A3007A19790C02082390000374FFF0A3740DEB
:1003B300F0A374CCF0A374FFF0A3740EF0A3741233
:1003C300F0900E58E493900009F0900E591207CB69
:1003D30090000A1207DB90000E7446F07BFF7A0D43
:1003E30079861208237F0A7E00120BEC90000374B7
:1003F300FFF0A3740EF0A374A0F0A374FFF0A37432
:100403000EF0A374E3F0900E58E493900009F0907B
:100413000F261207CB90000A1207DB90000E7443DD
:10042300F07BFF7A0E795D1208237F0A7E00120BA0
:10043300EC90000374FFF0A3740FF0A37468F0A3AF
:1004430074FFF0A3740FF0A374A6F0900E58E49316
:10045300900009F0900FE41207CB90000A1207DB1B
:1004630090000E743EF07BFF7A0F792A1208237FE7
:100473000A7E00120BEC90000374FFF0A37410F0DB
:10048300A37429F0A374FFF0A37410F0A3746AF0AB
:10049300900E58E493900009F09010AB1207CB90A4
:1004A300000A1207DB90000E7441F07BFF7A0F798C
:1004B300E81208237F0A7E00120BEC90000374FFFE
:1004C300F0A37410F0A374EAF0A374FFF0A3741103
:1004D300F0A37425F0900E58E493900009F0901166
:1004E300601207CB90000A1207DB90000E743BF0FA
:1004F3007BFF7A1079AF1208237F0A7E00120BEC80
:1005030090000374FFF0A37411F0A374A5F0A37417
:10051300FFF0A37411F0A374E6F0900E58E49390E7
:100523000009F09012271207CB90000A1207DB9004
:10053300000E7441F07BFF7A1179641208237F0A5D
:100543007E00120BEC90000374FFF0A37412F0A36F
:100553007476F0A374FFF0A37412F0A374C1F09047
:100563000E58E493900009F090130C1207CB9000FF
:100573000A1207DB90000E744BF07BFF7A12792B83
:100583001208237F0A7E00120BEC90000374FFF025
:10059300A37413F0A37451F0A374FFF0A37413F0C6
:1005A300A37492F0900E58E493900009F09013D343
:1005B3001207CB90000A1207DB90000E7441F07B08
:1005C300FF7A137910020823EC4D6011E849701784
:1005D300ED33EC3304600DE4FCFFFEFD22E933E868
:1005E300330470F802077B12074658046009E4CC11
:1005F30024815006285009020785284003020782F8
:10060300C0E0EB4A7044B98006D0E0FB020771EF0B
:100613004E701CBD8008EBFFEAFEE9FD80EBE98D1F
:10062300F0A4FEE5F00206B4E9CDF9EAFEEBFFEF34
:1006330089F0A4FCE5F0CE89F0A42EFFE435F0CDDB
:1006430089F0A42DFEE435F08067EF4E7005BD8080
:10065300D780C3EF8BF0A4ACF0EE8BF0A42CFCE4BA
:1006630035F0F8EF8AF0A42CE5F038FCE433CB8DB9
:10067300F0A42CFCE5F03BF8EE8AF0A42CFCE5F0AA
:1006830038F8E433CF89F0A42CFCE5F038CF3400FC
:10069300CE89F0A42FFFE5F03EFEE433C98DF0A42C
:1006A3002EFEE5F039CD8AF0A42FFFE5F03EFEE4FF
:1006B3003DFD33D0E0FB50070BBB000F020785EC79
:1006C3002CFCEF33FFEE33FEED33FD02075D75F0D7
:1006D30020800E75F010800575F0087D007E007F88
:1006E300003392D530D5031207BDEC334010EF33FE
:1006F300FFEE33FEED33FDEC33FCD5F0ED22E5F0F8
:10070300247EA2D513CC92E7CDCEFF22EDD2E7CD46
:1007130033EC3392D524814006E4FFFEFDFC22FC3A
:10072300E4CFCECDCC24E0501174FF80EDC3CC13C5
:10073300CCCD13CDCE13CECF13CF0470F030D5DE96
:100743000207BDE9D2E7C933E833F892D5EDD2E722
:10075300CD33EC33FC5002B2D522EC30E7100FBF9F
:10076300000C0EBE00080DBD00040BEB6014A2D5F7
:10077300EB13FCED92E7FD2274FFFCFDFEFF22E488
:1007830080F8A2D574FF13FC7D80E480EFBB010CDD
:10079300E58229F582E5833AF583E0225006E925CF
:1007A30082F8E622BBFE06E92582F8E222E58229E9
:1007B300F582E5833AF583E49322C3E49FFFE49E45
:1007C300FEE49DFDE49CFC22E493FC740193FD7420
:1007D3000293FE740393FF22ECF0A3EDF0A3EEF07B
:1007E300A3EFF02290000374FFF0A37414F0A3743A
:1007F30091F0A374FFF0A37414F0A374A0F0901409
:10080300AF740193900009F090147E1207CB90000F
:100813000A1207DB90000E740FF07BFF7A147982C3
:10082300900000EBF0A3EAF0A3E9F0E4900013F0EA
:1008330090000EE0FF900013E0C39F4003020950B5
:1008430090000FE07003C28C2290000FE0640170EF
:1008530008900014E07002D28C900000E0FBA3E04B
:10086300FAA3E0F9900013E0F58275830012079074
:10087300FF900009E0FD120A8E900011EFF0900046
:1008830000E0FBA3E0FAA3E0F9900013E0F5827522
:100893008300120790FF900009E0FD120B249000E3
:1008A30012EFF0900003E0FBA3E0FAA3E0F990005D
:1008B30013E0F582758300120790FF3395E0FE7411
:1008C300742FF58274193EF583E493FCE41206DB7E
:1008D30090000AE0F8A3E0F9A3E0FAA3E0FB120515
:1008E300CB12070F120BEC900006E0FBA3E0FAA378
:1008F300E0F9900013E0F582758300120790FF334F
:1009030095E0FE747C2FF58274193EF583E493FC25
:100913006024C28CE41206DB90000AE0F8A3E0F93D
:10092300A3E0FAA3E0FB1205CB12070F120BDCE4E2
:10093300900014F080069000147401F0C2A4C2A3C6
:10094300C2A2C2A1900013E004F002083322787F10
:10095300E4F6D8FD758109020998020ADBE493A342
:10096300F8E493A34003F68001F208DFF48029E45E
:1009730093A3F85407240CC8C333C4540F4420C8AA
:10098300834004F456800146F6DFE4800B01020441
:100993000810204080900BA6E47E019360BCA3FF67
:1009A300543F30E509541FFEE493A360010ECF5476
:1009B300C025E060A840B8E493A3FAE493A3F8E465
:1009C30093A3C8C582C8CAC583CAF0A3C8C582C8D1
:1009D300CAC583CADFE9DEE780BEC0E0C0F0C083DA
:1009E300C082C0D075D000C000C001C002C003C027
:1009F30004C005C006C0077FF47E01120C2620B395
:100A030010900010E0700A90000FF0A3E004F08053
:100A13000990000F7401F0A3E4F0D007D006D005CD
:100A2300D004D003D002D001D000D0D0D082D08364
:100A3300D0F0D0E032EF60069000157401F0900022
:100A430015E06401703030B10930B00630B20320D4
:100A5300B3247FF47E01120C26E4900015F020B13C
:100A6300037F012220B0037F022220B2037F0322EF
:100A730020B3157F042230B10F30B00C30B20930EF
:100A8300B3069000157401F07F0022ED2FFFFD7C6B
:100A930000C3940C748094805008D2A1EF90191471
:100AA300802BC3ED9418EC648094805008D2A2EF9D
:100AB3009019148018EFC39424748094805008D242
:100AC300A3EF9019148006D2A4EF90191493900009
:100AD30011F0900011E0FF22120003120BFCC2A7D9
:100AE300C2A6C2A4C2A3C2A2C2A1C2A0C2A57F01C0
:100AF300120A38EF64017007120B68C28C80DF7F23
:100B030001120A38EF640270071203AAC28C80CE66
:100B13007F01120A38EF640370C4120016C28C807E
:100B2300BDED2FFFFD7C00C3940C748094805006B0
:100B3300EF9019448024C3ED9418EC6480948050A2
:100B430006EF9019448013EFC3942474809480EFCC
:100B53005005901944800390194493900012F0902B
:100B63000012E0FF2290000374FFF0A3740CF0A3C3
:100B730074A1F0A374FFF0A3740DF0A37411F090AB
:100B83000D81E493900009F0900D821207CB900041
:100B93000A1207DB90000E7470F07BFF7A0C793138
:100BA30002082341001501410013004100140041D4
:100BB3000011404100120041000F014100100000EC
:100BC300C0E0C083C082900011E0F58CA3E0F58AF9
:100BD300B2A5D082D083D0E032EF1FAC0670011EE5
:100BE3004C6005120C0B80F122EF1FAC0670011E46
:100BF3004C6005120C1980F122438901E4F58CF550
:100C03008AD2A9D2AFC28C22007508027509C7D552
:100C130009FDD508FA2275085A7509A3D509FDD52A
:100C230008FA22EF1FAC0670011E4C70F6220C0E60
:100C3300100E0C0E1013151318131513100E0C0EA3
:100C4300100C0E100E0C0E10131513181315131091
:100C53000E0C0C131817131518151713101315135F
:100C6300101315181A1C131817131518151713102A
:100C7300131513101315181A180C0E100E0C0E1052
:100C830013151318131513100E0C0E100C0E100E53
:100C93000C0E1013151318131513100E0C0C050559
:100CA30004050504050502040505040505040505F9
:100CB30001050504050504050502040505040505EC
:100CC30003050104040505040505020405050405DF
:100CD30005050505050104040505040505020405CC
:100CE30005040505050505050105050405050405B8
:100CF30005020405050405050405050105050405AC
:100D030005040505020405050405050305000000A7
:100D130000000000000000000000000000000000D0
:100D230000000000000000000000000000000000C0
:100D330000000000000000000000000000000000B0
:100D430000000000000000000000000000000000A0
:100D53000000000000000000000000000000000090
:100D63000000000000000000000000000000000080
:100D73000000000000000000000000000000003F31
:100D8300800000070C10070C10070C10070C0C0E4A
:100D9300100C13100E130E0C09100C0B0B090B0C7B
:100DA3000E070C0E101111100E0C0E0C0E100C135E
:100DB300100E130E0C09090B0C0707090B0C0E0779
:100DC3000C0E101111100E0C0C0404040404040482
:100DD30004040404050505050305040404050503CB
:100DE30005020404040505040405050405050505B9
:100DF30002050505050305040404050504050503AB
:100E0300050404050504040505040505050501009D
:100E130000000000000000000000000000000000CF
:100E230000000000000000000000000000000000BF
:100E330000000000000000000000000000000000AF
:100E4300000000000003000000000000000000009C
:100E53000000000000053F000000101113131313DE
:100E630013151311101010101011100E0C0C0C0B85
:100E730009090B0C0E0E0E100E100E101113131386
:100E830013131513111010101011100E0C0B090968
:100E93000B0C0E070C0E100E0E0E0C0C0C0505049D
:100EA30004040405050505040404040505050504F7
:100EB30004050504050505050405050505020505E5
:100EC30004040404050505050404040505050505D6
:100ED30005050505050504040505030505050101CB
:100EE30000000000000000000000000000000000FF
:100EF30000000000000000000000000000000000EF
:100F030000000000000000000000000000000000DE
:100F130000000000000000000000000000000000CE
:100F23000001013ECCCCCD0C0E100C13100E130E91
:100F33000C09100C0B0C0B090B0C0E070C0E1011EB
:100F430011100E0C0E0C0E100C13100E130E0C09B8
:100F5300090B0C070707090B0C0E070C0E101111D8
:100F6300100E0C0C0C05050505030504040405050A
:100F73000305020505040405050404050504050528
:100F83000505020505050503050404040505040517
:100F93000503050504040505040405050405050505
:100FA3000501010000000000000000000000000037
:100FB300000000000000000000000000000000002E
:100FC300000000000000000000000000000000001E
:100FD300000000000000000000000000000000010D
:100FE300013F0000001011131313131315131110F5
:100FF3001010101011100E0C0C0C0B090B0B0C0E17
:101003000E100E100E1011131313131315131110CA
:1010130010101011100E0C0B09090B0C0E070C0EFF
:10102300100E0E0C0C0C050504040404050505053F
:101033000404040405050505040405050404050565
:101043000405050505020505040404040505050555
:101053000404040505050505050505050505040442
:101063000505020505010100000000000000000065
:10107300000000000000000000000000000000006D
:10108300000000000000000000000000000000005D
:10109300000000000000000000000000000000004D
:1010A30000000000000001013ECCCCCD0C0E100C62
:1010B30013100E130E0C09100C0B0B090B0C0E075F
:1010C3000C0E101111100E0C0E0C0E100C13100E32
:1010D300130E0C09090B0C0707090B0C0E070C0E5A
:1010E300101111100E0C0C0505050503050404046D
:1010F30005050305020404040505040405050405A8
:101103000505050205050505030504040405050495
:101113000505030504040505040405050405050583
:1011230005010000000000000000000000000000B6
:1011330000000000000000000000000000000000AC
:10114300000000000000000000000000000000009C
:10115300000000000000000000000000003F00004D
:101163000010111313131313151311101010101073
:1011730011100E0C0C0C0B090B0B0C0E0E100E1099
:101183000E10111313131313151311101010101144
:10119300100E0C0B09090B0C0E070C0E100E0E0C87
:1011A3000C0C0505040404040505050504040404E6
:1011B30005050505040405050404050504050505E1
:1011C30005020505040404040505050504040405D6
:1011D30005050505050505050505040405050205C1
:1011E30005010100000000000000000000000000F5
:1011F30000000000000000000000000000000000EC
:1012030000000000000000000000000000000000DB
:1012130000000000000000000000000000000000CB
:10122300000001013ECCCCCD0C0E100C13100E139C
:101233000E0C09100C0B0C0B090B0C0E070C0E10EB
:101243001111100E0C0E0C0E100C13100E130E0CAD
:1012530009090B0C0707090B0C0E070C0C090B0CE7
:101263000E070C0B090B0C0E070C0E101111100EB0
:101273000C0C0C050505050305040404050503050D
:101283000205050404050504040505040505050513
:101293000205050505030504040405050405050306
:1012A30005040405050404050504050502050504F4
:1012B30004050504040505040505050501010000F1
:1012C300000000000000000000000000000000001B
:1012D300000000000000000000000000000000000B
:1012E30000000000000000040000000000000000F7
:1012F30000000000000000000000000000010100E9
:101303000000000000000000003F00000010111367
:1013130013131313151311101010101011100E0CBA
:101323000C0C0B090B0B0C0E0E100E100E101113E0
:10133300131313131513111010101011100E0C0B9F
:1013430009090B0C0E070C0E100E0E0C0C0C0505E8
:101353000404040405050505040404040505050542
:101363000404050504040505040505050502050532
:101373000404040405050505040404050505050521
:10138300050505050505040405050205050101001C
:10139300000000000000000000000000000000004A
:1013A300000000000000000000000000000000003A
:1013B300000000000000000000000000000000002A
:1013C3000000000000000000000000000000010118
:1013D3003ECCCCCD0C1817181318111810180E1872
:1013E300101811180C1817181F181D181C181A1884
:1013F3001C181D0C1817181F181D181C181A181C58
:10140300181D180C1817181F181D180606060606AF
:101413000606060606060606060606060606060669
:10142300060606060606060606050606060606065A
:101433000606060606060606060606060606060649
:10144300060600000000000000000000000000008D
:101453000000000000000000000000000000000089
:101463000000000000000000000000000000000079
:10147300000000000000000000FFFF3F40000010DC
:101483001010101313111004101010101111040474
:101493000405050405030504040405050200000012
:1014A300000100000003000000000100FFFF101016
:1014B300101013131110111313040404050504056C
:1014C300030505040000000001000000000100FF07
:1014D300FF0C0C0C0E0C0C0606060506040001009E
:1014E300000100FFFF101111111011111110111142
:1014F3001110101111100C0E0C0E0E0E0E0E0E0EFE
:10150300101005050505060606040505050606066D
:10151300060605050506060505050606050502007A
:1015230000000000010003000000010000010003AF
:10153300000101010000000001000000FFFF15157C
:1015430017171313131C1C1C1C1D1C1C181818180C
:1015530018181718181C1C1C050505050606060592
:101563000604050606060506040606050606060520
:10157300060100000000000100000100000001005E
:10158300000100000100000100000100FFFC15152F
:1015930017171313131C1C1C1C1D1F1F181F1F1FA1
:1015A3001D1D1C1C1D1C1C1818181A1B1C1A18188E
:1015B3001A1B1C1D0505050506060605060405067A
:1015C30006060506040606060605060605060602C1
:1015D30006050404040606050404000000000001D7
:1015E30000000100000001000001010101010100F0
:1015F30000010001000200000000000000000000E4
:10160300FFFC1011111110111111101111111010F3
:101613001111100C0E0C0E0E0E0E0E0E0E101010DD
:1016230000000000000000000000000000000000B7
:1016330000000000000000000000000000000000A7
:101643000000000000000000000000000000000097
:101653000000000000000000000000000000000087
:101663000000000000000000000000000000000077
:101673000000000000000000000000000000000067
:101683000000000000000000000000000000000057
:101693000000000000000000000000000000000047
:1016A3000000000000000000000000000000000037
:1016B3000000000000000000000000000000000027
:1016C3000000000000000000000000000000000017
:1016D3000000000000000000000000000000000007
:1016E30000000000000000000505050506060604CD
:1016F3000505050606060606050505060605050590
:1017030006060505000200000000000100030000BA
:1017130000010000010003000101010000000001BD
:1017230000000100FFFF151517171313131C1C1CD2
:101733001C1D1C1C1818181818181718181C1C1C0A
:101743001C1A1C1A1A1A151517171313131C1C1C11
:101753001C1D1F1F181F1F1F1D1D1C1C1D1C1C17BC
:10176300181D1F1F1D181F20201F1B1B1D241F1D9D
:101773001C181813181A1A18151717050505050646
:1017830006060506040506060605060406060506FE
:1017930006060506020606060605050505050506F1
:1017A30006060506040506060605060406060606DD
:1017B30005060605050204050604040405060506D8
:1017C30006040505050406050503050205050502CE
:1017D3000000000000010000010000000100000102
:1017E30000000100000100000101010101010103EA
:1017F30000000000000100000102000001000001E0
:1018030001010101010000010000000001000000CE
:1018130000010000010003000000000100000001BE
:101823000300000100FFFC151517171313131C1CED
:101833001C1C1D1C1C1818181818181718181C1C09
:101843001C1C1F1C151517171313131C1C1C1C1D04
:101853001F1F181F1F1F1D1D1C1C1D1C1C1C1718C0
:10186300180505050506060605060405060606050C
:101873000604060605060606050602050405050513
:1018830005050606060506040506060605060406FE
:101893000606060506060502050501000000000010
:1018A3000100000100000001000001000001000030
:1018B300010000010101010300000000000100001C
:1018C300010200000100000101010101010000010A
:1018D3000102010000FFFC0C18171813181118104F
:1018E300180E181018111805050505050505050539
:1018F30005050505050504000000000000000000C3
:1019030000000000000003FFFF171804000000FFA1
:10191300FCF9F9F9FAFAFAFBFBFBFBFCFCFCFCFC17
:10192300FDFDFDFDFDFDFDFEFEFEFEFEFEFEFEFEDB
:10193300FEFEFEFFFFFFFFFFFFFFFFFFFFFFFFFFB7
:10194300FF2180E0368BD72268A9E9235B8EC0EEA6
:101953001B446C91B4D5F4112D4760778DA2B6B6B4
:10196300DAEAFA0916232F3B46505B696C747D84CF
:0D1973008A503C281E140A05031E00E8F4EB
:00000001FF
